:020000040800F2
:100000007806002439030008BF1200084D120008CA
:10001000BD12000847040008691400080000000031
:10002000000000000000000000000000C3120008F3
:100030004904000800000000C1120008C5120008B1
:100040005703000857030008570300085703000828
:100050005703000857030008570300085703000818
:100060005703000857030008570300085703000808
:1000700057030008570300085703000857030008F8
:1000800057030008570300085703000857030008E8
:1000900057030008570300085703000857030008D8
:1000A00057030008570300085703000857030008C8
:1000B00057030008570300085703000857030008B8
:1000C00057030008570300085703000857030008A8
:1000D0005703000857030008570300085703000898
:1000E00057030008570300080000000057030008EA
:1000F0005703000857030008570300085703000878
:100100005703000857030008570300085703000867
:100110005703000857030008570300085703000857
:100120005703000857030008570300085703000847
:100130005703000857030008570300085703000837
:1001400000000000000000000000000000000000AF
:100150005703000857030008570300085703000817
:100160005703000857030008570300085703000807
:100170005703000857030008570300080000000059
:1001800057030008570300085703000857030008E7
:1001900057030008570300085703000857030008D7
:1001A00057030008570300085703000857030008C7
:1001B00057030008570300085703000857030008B7
:1001C00057030008570300085703000857030008A7
:1001D0005703000857030008570300085703000897
:1001E0005703000857030008570300085703000887
:1001F0005703000857030008570300085703000877
:100200005703000857030008570300085703000866
:100210005703000857030008570300085703000856
:1002200057030008570300085703000800000000A8
:100230005703000857030008000000005703000898
:100240005703000857030008570300085703000826
:100250005703000857030008570300085703000816
:100260005703000857030008570300085703000806
:100270005703000857030008570300080000000058
:100280005703000857030008570300080000000048
:10029000000000005703000800F002F800F03CF8EE
:1002A0000AA090E8000C82448344AAF10107DA45D1
:1002B00001D100F031F8AFF2090EBAE80F0013F0E7
:1002C000010F18BFFB1A43F001031847501200003A
:1002D00070120000103A24BF78C878C1FAD85207CB
:1002E00024BF30C830C144BF04680C6070470000B0
:1002F0000023002400250026103A28BF78C1FBD82F
:10030000520728BF30C148BF0B6070471FB501F0CE
:10031000F7F81FBD10B510BD00F05CF81146FFF7EF
:10032000F5FF01F0B3F800F07AF803B4FFF7F2FF3D
:1003300003BC00F081F800000A4880470A48804763
:100340000A480047FEE7FEE7FEE7FEE7FEE7FEE7B6
:10035000FEE7FEE7FEE7FEE705480649064A074BCB
:10036000704700004D04000871130008990200084E
:100370007800002478060024780200247802002403
:100380004FF0000200B5134694469646203922BF2E
:10039000A0E80C50A0E80C50B1F12001BFF4F7AF79
:1003A000090728BFA0E80C5048BF0CC05DF804EB5B
:1003B000890028BF40F8042B08BF704748BF20F8C9
:1003C000022B11F0804F18BF00F8012B70477047C7
:1003D00070477047754600F02BF8AE460500694639
:1003E000534620F00700854618B020B5FFF7B4FF4C
:1003F000BDE820404FF000064FF000074FF0000826
:100400004FF0000B21F00701AC46ACE8C009ACE8A6
:10041000C009ACE8C009ACE8C0098D46704710B50A
:100420000446AFF300802046BDE81040FFF77DBFD3
:10043000004870471400002401491820ABBEFEE7B5
:10044000260002007047FEE7704700000548054996
:100450000839026842F00202026008688004FCD594
:10046000704700000C48025870B5044600F03CF993
:100470000546601C02D004480078044400F034F9BA
:10048000401BA042FAD370BD000000242DE9F84FB4
:1004900003247F4D00234FF001094FF0B04B4FF084
:1004A0000F0AEDE009FA03F632407AD00F7907F02F
:1004B0000307012F01D0022F19D187684FEA430E9D
:1004C000D1F80CC004FA0EF827EA08070CFA0EFC63
:1004D0004CEA070CC0F808C0D0F804C00F792CEA29
:1004E000060CC7F300179F4047EA0C0747600E79D8
:1004F000F643B60702D18E68012E0BD0C6684FEACC
:1005000043088F6804FA08FC26EA0C0607FA08F785
:100510003743C7600E7906F00306022E12D1DE08BB
:100520000F694FEA437C00EB8606B646366A4FEA0F
:10053000DC6C0AFA0CF807FA0CF726EA08063743CF
:10054000CEF820700F7906684FEA430807F00307DA
:1005500004FA08FC07FA08F726EA0C063743076096
:100560004E6816F4403F1CD04A4E376847F00207E9
:10057000376036689F0706F00206009623F00306F0
:1005800006F1B046B6463F0FD6F80864DFF808819A
:100590000AFA07FC404526EA0C0603D14FF0000C8E
:1005A00041E06CE0DFF8F4C0604502D14FF0010C8F
:1005B00039E0DFF8ECC0604502D14FF0020C32E0C8
:1005C000DFF8E0C0604502D14FF0030C2BE0DFF80C
:1005D000D8C0604502D14FF0040C24E0DFF8CCC055
:1005E000604502D14FF0050C1DE0DFF8C4C0604546
:1005F00002D14FF0060C16E0DFF8B8C0604502D11A
:100600004FF0070C0FE0DFF8B0C0604502D14FF0AB
:10061000080C08E0DFF8A4C0604502D14FF0090CD7
:1006200001E04FF00A0C0CFA07FC4CEA060CCEF87D
:1006300008C44F68DBF80060FF0226EA020600D516
:1006400016435F46CBF80060D1F804C0DBF80460C5
:100650005FEA8C2C26EA020600D516437E606E689F
:100660004F6826EA0206BF0300D516436E602E6867
:100670004F6826EA0206FF0300D516432E605B1C76
:100680000A6832FA03F67FF40DAFBDE8F88F000078
:1006900080000058F4440258000002580004025838
:1006A00000080258000C02580010025800140258AA
:1006B00000180258001C025800200258002402585A
:1006C000426921EA02030A4043EA0241816170471C
:1006D0000AB1816170470904FBE700000148006826
:1006E000000C70470010005C0148806870470000F3
:1006F000000000240248816802781144816070473C
:1007000000000024032010B500F0C6F800F02EFA17
:100710000F4A104914681368C4F3032203F00F034F
:100720008A5CC95C02F01F0201F01F01D0400A4A36
:1007300020FA01F11160094908600F2000F010F85B
:1007400008B1012010BD00F079F8002010BD0000B4
:10075000184402580A150008100000240C00002458
:1007600070B50D4D04462878A0B14FF47A71B1FBF5
:10077000F0F00A490968B1FBF0F000F054FD48B907
:10078000102C07D200222146501E00F065F80020F0
:100790006C6070BD012070BD000000240C000024BE
:1007A000154BF0B5083B427813491A600B680A1FD5
:1007B00023F001030B6043681360057BC67A827ADD
:1007C000437B2D07847B45EA0665C77B90F809C00B
:1007D000067A90F800E045EAC24040EA834040EAE9
:1007E000444040EA074040EA0C2040EA460040EA24
:1007F0000E000860F0BD0000A0ED00E0BFF35F8FC9
:10080000044800210368034A23F4803303607032F4
:100810001160704724ED00E0074A40F001000649EE
:1008200070321060086840F480300860BFF34F8F6A
:10083000BFF36F8F7047000024ED00E0054808B556
:10084000016841F002010160006800F002000090C0
:1008500008BD0000F44402580E4BF0B41B680D466E
:10086000C3F30223C3F10706042E00D90426191D81
:10087000072901D2002300E0DB1E012404FA06F15F
:100880009C40491E2940641E994014402143F0BCFD
:1008900000F0EBBD0CED00E0064900F0070210B5DA
:1008A0004FF6FF040868044B204040EA022018433A
:1008B000086010BD0CED00E00000FA05134970B5AA
:1008C0000A68D243520705D5096801F00701814241
:1008D00013D118E00A6822F0070202430A60FFF70A
:1008E00003FF0A4D4FF47A760446083D07E000BF47
:1008F000FFF7FAFE001BB04201D9012070BD286845
:10090000C0438004F4D4002070BD00000C4802589D
:100910002DE9F05F04000F467ED0DFF83882D8F86A
:10092000000000F00F00B8420CD2D8F8001021F0FF
:100930000F013943C8F80010D8F8000000F00F008C
:10094000B84269D12078844D40070AD520692968CA
:1009500001F07001884204D9296821F07001014337
:10096000296020787C4E361D00070AD56069316801
:1009700001F07001884204D9316821F0700101430F
:1009800031602078C0060AD5A069316801F4E061C1
:10099000884204D9316821F4E06101433160207854
:1009A000DFF8B4B180060BF1080B0CD5E1695846AD
:1009B000DBF8002002F07002914204D9026822F0B4
:1009C00070020A430260207880070AD5E06829682F
:1009D00001F00F01884204D9296821F00F01014379
:1009E00029602078C0073ED05B49A2682868183982
:1009F00020F47060104328606068022818D0032833
:100A000019D00968012819D0490700294ADADFF806
:100A100048A1AAF1080A00E044E0DAF8002022F038
:100A200007020243CAF80020FFF75EFE814612E08B
:100A300009688903E9E709688901E6E7C905E4E788
:100A4000FFF752FEA0EB090141F28830814202D942
:100A50000320BDE8F09F6168DAF8000000F038007C
:100A6000B0EBC10FECD1207880070AD5E068296887
:100A700001F00F01884204D2296821F00F010143DF
:100A80002960D8F80010404601F00F01B9420BD997
:100A9000016821F00F0139430160006800F00F0088
:100AA000B84201D00120D4E7207840070AD5206958
:100AB000296801F07001884204D2296821F0700190
:100AC00001432960207800070AD56069316801F088
:100AD0007001884204D2316821F070010143316015
:100AE0002078C0060AD5A069316801F4E061884227
:100AF00004D2316821F4E06101433160207880063E
:100B00000CD5E1695846DBF8002002F070029142F2
:100B100004D2026822F070020A43026000F026F854
:100B20000E492A682B68C2F3032203F00F038A5C84
:100B3000C95C02F01F0201F01F01D040084A20FAF0
:100B400001F111600749086007480068BDE8F05FDF
:100B5000FFF706BE00200052184402580A1500088C
:100B6000100000240C00002404000024454970B546
:100B700045480968434B103B11F0380208D0011179
:100B8000082A03D0102A0BD0182A0BD0084670BDB3
:100B900019688906FBD51968C1F3C101C84070BD49
:100BA0003A4870BD3749374D18310C1D24350A6855
:100BB000096826682D6802F0030406F00102C1F3FB
:100BC0000511C5F3CC0515FB02F200EE102AB8EEB4
:100BD000400AE9B32F4ADFED2E0AB7EE001A6CB1D6
:100BE000DFED2D1A012C01D0022C43D002EE101A99
:100BF0001068F8EE422A81EEA22A1EE01C68A406C4
:100C000011D51B6801EE901A1168C3F3C103F8EE09
:100C1000612AD84001EE900AC1F30800F8EE611A8B
:100C200081EEA22A0BE001EE901ADFED1C2A00BF34
:100C3000F8EE611A106882EEA12AC0F3080001EEF6
:100C4000900AF8EE611A40EE201A31EE810A00E0B7
:100C500015E022EE000A1068C0F34620401C00EEAA
:100C6000900AF8EE600A80EE201ABCEEC10A10EE7F
:100C7000100A70BD01EE901ADFED092AD8E70020B6
:100C800070BD0000104402580090D00340787D01F0
:100C900000000039304402580024744A0024744C87
:100CA00020BCBE4B2DE9F05F04007DD0FF4F2078C3
:100CB000FE4D1837DFF8F493103DC00748D0D9F83F
:100CC0000000396800F03800102815D0182803D12A
:100CD00001F0030002280FD06068B0F5803F12D009
:100CE00010B1B0F5A02F18D0286820F4803028600B
:100CF000286820F4802009E02868800328D56068EF
:100D00000028D2D024E0286840F480302860606851
:100D100088B1FFF7E9FC064609E0286840F4802026
:100D20002860F0E7FFF7E0FC801B64286FD8286894
:100D30008003F7D50CE0FFF7D7FC064605E000BFBF
:100D4000FFF7D2FC801B6428F0D828688003F7D412
:100D5000207841F20308D54E0C3E800769D5D9F8BA
:100D60000000396810F038000ED0182801D188072B
:100D70000AD0E06890B3296821F019010143296085
:100D8000FFF7B2FC824631E02868400702D5E068F0
:100D900000288AD0E168286820F0190008432860FC
:100DA000FFF7A2FC824607E0DFE000BFFFF79CFCF4
:100DB000A0EB0A000228B9D828684007F6D500BF82
:100DC000FFF78CFC40451BD82069402812D03168C1
:100DD00021F47C3141EA003030602AE018E000BFA5
:100DE000FFF782FCA0EB0A0002289FD82868400782
:100DF000F6D5E5E7306820F47C3040F40030EBE7CE
:100E0000207C316821F0FE4141EA0060E4E70DE119
:100E1000286820F001002860FFF766FC824605E0A4
:100E2000FFF762FCA0EB0A0002288DD82868400773
:100E3000F6D42078C0065DD5D9F80000DFF86CB292
:100E4000396800F03800ABF1040B082810D01828DE
:100E500003D101F0030001280AD0E06900282868C6
:100E600038D040F080002860FFF73EFC824623E047
:100E70002868C00523D5E069802876D11FE0206A64
:100E8000202821D0316821F0F84141EA80603060AB
:100E900030E000BF94F82010DBF8002022F07C52F4
:100EA00042EA0161CBF8001024E000BFFFF71CFC10
:100EB000A0EB0A00022898D82868C005F6D5FFF7ED
:100EC0000DFC4045E6D8DAE7306820F0F84040F005
:100ED0008040DCE720F080002860FFF705FC064634
:100EE00005E000BFFFF700FC801B02289DD82868A2
:100EF000C005F7D42078000729D56C4861696430B3
:100F000000298046016811D041F001010160FFF71E
:100F1000EBFB064605E000BFFFF7E6FB801B02285F
:100F2000C9D8D8F800008007F6D510E021F00101FB
:100F30000160FFF7D9FB064605E000BFFFF7D4FBD1
:100F4000801B022872D8D8F800008007F6D42078D9
:100F5000800623D5A0690028286810D040F480506E
:100F60002860FFF7C1FB064605E036E1FFF7BCFB52
:100F7000801B02285AD828688004F7D50EE020F498
:100F800080502860FFF7B0FB064604E0FFF7ACFB9B
:100F9000801B02284AD828688004F7D420784007AC
:100FA0004FD5DFF80C81D8F8001041F48071C8F8F3
:100FB0000010FFF799FB064605E000BFFFF794FB22
:100FC000801B642832D8D8F80000C005F6D5374E0B
:100FD000A068603601280AD008B1052813D030680F
:100FE00020F001003060306820F0040002E030683A
:100FF00040F001003060A06841F2883A90B1FFF7FC
:1010000073FB80460AE0306840F004003060EEE791
:10101000FFF76AFBA0EB0801514507D8306880074D
:10102000F6D50EE0FFF760FB804607E084E000BFE6
:10103000FFF75AFBA0EB080151457DD830688007C7
:10104000F6D4606AB0B3DFF86480D9F8001008F114
:1010500020084FF6F87B08F10409C1F3C201032907
:10106000A8F1040A69D00228286820F0807028605E
:1010700003D0FFF739FB044684E0FFF735FB064653
:1010800005E000BFFFF730FB801B022877D82868F7
:101090008001F7D4E26A40F2F331386854F8283F0F
:1010A000884340EA02101843386004E010440258B4
:1010B00000480258B5E0217B434622894FF4FE0CDC
:1010C000208A4FF0FE474902267D521E401EA1F5A0
:1010D0000071C2F308088AB2761E0CEA004042EAA8
:1010E00008020243504607EA06610A431A60DAF82A
:1010F000002022F00102CAF80020D9F80020266A58
:1011000022EA0B0242EAC602C9F80020DAF800100F
:10111000A26921F00C011143CAF800100168E269CC
:1011200021F0020111430160016841F48031016046
:10113000016841F4003101E021E027E0016001682D
:1011400041F480210160016841F0010101602868DB
:1011500040F080702860FFF7C7FA044605E000BF42
:10116000FFF7C2FA001B022809D828688001F7D5CA
:1011700057E000BFFFF7B8FA001B022802D903208E
:10118000BDE8F09F28688001F4D44AE0396801285E
:10119000D8F8000021D0A26A01F0030393421CD1C9
:1011A000E26AC1F305118A4217D1216BC0F308022C
:1011B000491E8A4211D1616BC0F34622491E9142F9
:1011C0000BD1A16BC0F30642491E914205D1E16BE0
:1011D000C0F30660491E814201D00120D0E7A16C16
:1011E0004E46D9F80000C0F3CC00814219D0DAF89D
:1011F0000000554620F00100CAF80000FFF774FA1D
:101200004FEA0007FFF770FAB842FBD0A26C3068D3
:1012100020EA0B0040EAC2003060286840F001007C
:1012200028600020ACE7401EB0F1807F10B501D3EC
:10123000012010BD4FF0E02460610F21601700F025
:1012400014F90020A0610721216110BDFEE7000014
:1012500010B586B014216846FFF792F8154801686A
:1012600041F004010160016801F004010591016889
:1012700041F080010160016801F080010591016881
:1012800041F002010160006800220B4C012100F0D6
:10129000020005902046FFF71BFA0021204601229C
:1012A0000092CDE9012103916946FFF7EFF806B0FE
:1012B00010BD0000E044025800040258FEE7FEE7BB
:1012C00070477047FFF716BA70B59CB04C2168465E
:1012D000FFF756F8202113A8FFF752F80220FFF776
:1012E000EDFA2149002421480A6822F001020A602F
:1012F0000968016841F440410160016801F440411E
:101300001B9101688904FCD50DF1280C022009907D
:101310000523A0268CE84900C2030F9008250D90F4
:1013200001210E90CDE91054CDE9001268461294C7
:10133000FFF7B8FC08B172B6FEE740201A903F21D3
:101340000301CDE916500322CDE9180313AB13A80E
:1013500083E816000221FFF7DBFA002801D072B6FD
:10136000FEE71CB070BD00002C040058184802585D
:101370003348F0B5334A016841F4700101601068E8
:1013800000F00F00072804D2106820F00F00C01DE5
:1013900010602D4900202C4C10340B682B4D43F06D
:1013A00001030B6020600B682B400B60136803F097
:1013B0000F03072B04D9136823F00F03DB1D136001
:1013C000214C234A1834234B261D371D20601E4C08
:1013D000214D28343060261D3860371D23603B1DA9
:1013E00035601C1D3A60251D2E1D1860331D2260BE
:1013F0002860326018600A68134B184C22F480226F
:1014000060330A60186020686FF30F00B0F1005F6E
:1014100003D213490120C1F808010B48D4300168F8
:10142000C9040BD4026843F2D2010E4B42F480523D
:1014300002601960016821F480510160F0BD000074
:1014400088ED00E000200052004402587FEDF6EAEB
:1014500080020101000202020000FF010010005C96
:101460000080005100400052FEE7090700284FEAC3
:10147000116104DB00F1E02080F80014704700F0F7
:101480000F0000F1E02080F8141D70471FB5002404
:101490000094019402940394FFF7B0F901208DF8B1
:1014A0000C001F218DF8081087228DF809208DF877
:1014B0000D008DF8000068468DF80A408DF80E404A
:1014C0008DF8014001948DF80B408DF80F40FFF727
:1014D00067F90420FFF7A0F9FFF714F9FFF7F4FE0E
:1014E000FFF7B6FE054C4FF47A7501212046FFF751
:1014F000E7F82846FEF7B8FFF7E7000000040258B7
:101500004FF04070E1EE100A704700000000010249
:101510000304010203040607080900003C15000843
:101520000000002414000000D40200085015000838
:101530001400002464060000F0020008010000000E
:1015400010000000000000000090D0030090D003C5
:040000050800029954
:00000001FF
