:020000040800F2
:1000000050070024390300089B240008B52300088A
:1000100099240008FF040008892800080000000057
:10002000000000000000000000000000E1260008C1
:1000300001050008000000009D240008E3260008D8
:100040005703000857030008570300085703000828
:100050005703000857030008570300085703000818
:100060005703000857030008570300085703000808
:1000700057030008570300085703000857030008F8
:1000800057030008570300085703000857030008E8
:1000900057030008570300085703000857030008D8
:1000A00057030008570300085703000857030008C8
:1000B00057030008570300085703000857030008B8
:1000C00057030008570300085703000857030008A8
:1000D0005703000857030008570300085703000898
:1000E00057030008570300080000000057030008EA
:1000F0005703000857030008570300085703000878
:100100005703000857030008570300085703000867
:100110005703000857030008570300085703000857
:100120005703000857030008570300085703000847
:100130005703000857030008570300085703000837
:1001400000000000000000000000000000000000AF
:100150005703000857030008570300085703000817
:100160005703000857030008570300085703000807
:100170005703000857030008570300080000000059
:1001800057030008570300085703000857030008E7
:1001900057030008570300085703000857030008D7
:1001A00057030008570300085703000857030008C7
:1001B00057030008570300085703000857030008B7
:1001C00057030008570300085703000857030008A7
:1001D0005703000857030008570300085703000897
:1001E0005703000857030008570300085703000887
:1001F0005703000857030008570300085703000877
:100200005703000857030008570300085703000866
:100210005703000857030008570300085703000856
:1002200057030008570300085703000800000000A8
:100230005703000857030008000000005703000898
:100240005703000857030008570300085703000826
:100250005703000857030008570300085703000816
:100260005703000857030008570300085703000806
:100270005703000857030008570300080000000058
:100280005703000857030008570300080000000048
:10029000000000005703000800F002F800F03CF8EE
:1002A0000AA090E8000C82448344AAF10107DA45D1
:1002B00001D100F031F8AFF2090EBAE80F0013F0E7
:1002C000010F18BFFB1A43F001031847D4270000A1
:1002D000F4270000103A24BF78C878C1FAD8520732
:1002E00024BF30C830C144BF04680C6070470000B0
:1002F0000023002400250026103A28BF78C1FBD82F
:10030000520728BF30C148BF0B6070471FB502F0CD
:100310008BFB1FBD10B510BD00F0B8F81146FFF7FC
:10032000F5FF02F01BFB00F0D6F803B4FFF7F2FF75
:1003300003BC00F0DDF800000A4880470A48804707
:100340000A480047FEE7FEE7FEE7FEE7FEE7FEE7B6
:10035000FEE7FEE7FEE7FEE705480649064A074BCB
:10036000704700000905000891270008990200085D
:10037000500100245007002450030024500300249F
:1003800010B5203AC0F00B80B1E81850203AA0E830
:100390001850B1E81850A0E81850BFF4F5AF5FEA64
:1003A000027C24BFB1E81850A0E8185044BF18C917
:1003B00018C0BDE810405FEA827C24BF51F8043BBE
:1003C00040F8043B08BF7047D20728BF31F8023B12
:1003D00048BF11F8012B28BF20F8023B48BF00F8A6
:1003E000012B704702F0FF0343EA032242EA024274
:1003F00000F02CB84FF0000200B513469446964624
:10040000203922BFA0E80C50A0E80C50B1F1200127
:10041000BFF4F7AF090728BFA0E80C5048BF0CC0D5
:100420005DF804EB890028BF40F8042B08BF704733
:1004300048BF20F8022B11F0804F18BF00F8012BA5
:1004400070477047704770474FF000020429C0F0B2
:10045000128010F0030C3FF4CFAFCCF1040CBCF1D0
:10046000020F18BF00F8012BA8BF20F8022BA1EB48
:100470000C01FFF7C1BF5FEAC17C24BF00F8012B6C
:1004800000F8012B48BF00F8012B7047754600F0BB
:100490002BF8AE4605006946534620F00700854616
:1004A00018B020B5FFF758FFBDE820404FF0000618
:1004B0004FF000074FF000084FF0000B21F007014C
:1004C000AC46ACE8C009ACE8C009ACE8C009ACE88F
:1004D000C0098D46704710B50446AFF30080204632
:1004E000BDE81040FFF721BF00487047F00000242E
:1004F00001491820ABBEFEE7260002007047FEE768
:10050000704772B6FEE700000548054908390268E1
:1005100042F00202026008688004FCD570470000C7
:100520000C480258F0B503684FF6FC716D4C426BF5
:10053000D3F884508D4345EA8205C3F8845003689C
:1005400053F8845F068F25F47F0545EA06451D6054
:10055000836B654D9F180268D2F888308B4343EA5D
:100560008703C2F88830026852F8883F868F23F4E8
:10057000FE0343EA06431360066856F8A03FC26BC9
:100580008B4307EB420243EA82033360076857F864
:10059000A03FB0F8406023F4FE0343EA06433B600B
:1005A000D0E9103603FB06220368D3F8B0608E430F
:1005B00046EA8206C3F8B0600368B0F84860D3F832
:1005C000B07027F4FE0747EA0646C3F8B060D0E9EA
:1005D0001267036806FB0722D3F8AC608E4346EA35
:1005E0008206C3F8AC60D0E91467036806FB0722F3
:1005F000D3F8F0608E4346EA8206C3F8F0600368E1
:10060000B0F85860D3F8F07027F47C1747EA064634
:10061000C3F8F0600368876D53F8C06F02EB4702C0
:100620008E4346EA820119600168B0F85C20D1F877
:10063000C03023F47C1343EA0242C1F8C0200168B1
:1006400090F86020D1F8C03023F07C5343EA026276
:10065000C1F8C020416B04EB8101C166826B01EBE4
:1006600082020267C36B02EBC3024267D0E9103417
:10067000634302EB83028267D0E91234634302EBE7
:100680008302C267D0E91434634302EB8302C0F8EB
:100690008020836D02EBC303C0F88430C46D826E8A
:1006A000544303EB8403C0F88830046E544303EBD7
:1006B0008402C0F89020AA420AD9D0F89C200321D5
:1006C00042F02002C0F89C2080F898100120F0BD74
:1006D000002200E004C1D0F890308B42FAD800200C
:1006E000F0BD000000AC0040FCD30040164B70B5DC
:1006F000191D154A0C1D1548251D186018320020BB
:100700001860134E131D0E60086040F271212160C5
:10071000291D104E206018242E6028600C600C1DCE
:1007200008600D492160191D20604FF49B740B4D2A
:1007300014600B4C10601D6018600C60086000F0C5
:1007400061FB002070BD00007C4402583150010064
:1007500023C0000AFF072803FFC3FFE83330D73167
:10076000AADE200070B5044600F0A2FA0546601C1F
:1007700002D004480078044400F09AFA401BA042DA
:10078000FAD370BD040000242DE9F04194B08D49E6
:100790004C2204466846FFF7F3FD64B18A4D206899
:1007A000A84202D100F58070606094F898004FF084
:1007B000000820B108E0012014B0BDE8F081204617
:1007C00084F8998000F002F92068816921F0100115
:1007D000816100F06DFA0327064604E000F068FA34
:1007E000801B0A2811D8206880690007F6D4206889
:1007F000816941F00101816100F05AFA06460DE07D
:1008000000F056FA801B0A2808D9D4F89C0040F062
:100810000100C4F89C0084F89870CCE720688069D7
:10082000C007EDD02068816941F002018161207C20
:1008300001282068816937D041F040018161607CE6
:1008400001282068816932D021F480418161A07C37
:100850000128206881692DD041F480518161206890
:10086000A268816921F44071114381612068816926
:1008700021F0A40181612068016921F0100101616A
:10088000E068012819D010B302281BD020688169C4
:1008900041F0800181612068016941F0100101612E
:1008A000E06803280ED012E021F04001C6E741F4D1
:1008B0008041CBE721F48051D0E72068816941F085
:1008C000040103E02068816941F020018161207EFC
:1008D0006FF0FF02D4E90773A68A1102400602EB0B
:1008E0000727A0F10070384327685B1E184301EB0F
:1008F00006463043F861A068B0F5407F11D104F19D
:100900002800A68C6FF00F0C89C801EB0641401E31
:1009100002EB0322104322680CEB07131843084331
:10092000D060206E30B12068626ED0F8C0101143E4
:10093000C0F8C010D4E917126846D14209D0216826
:10094000A36E51F8C82F50F8233022F007021A4343
:100950000A60216C49B12168626C51F8BC3F50F8C3
:10096000226023F0070232430A60A16C51B1216872
:10097000E36C51F8BC2F50F8233022F0700242EAA9
:1009800003120A60216D51B12168626D51F8BC3FBC
:1009900050F8220023F4E06242EA00200860206858
:1009A000A84204D16068816821F003018160C4F825
:1009B00094800121C4F89C8084F898102046FFF7A9
:1009C000B1FDF9E6442A000800A0004010B5B6B019
:1009D0000446142130A8FFF70DFDC0216846FFF73B
:1009E00009FD1949206888422CD100201C904FF441
:1009F00000410446CDE90010684600F06FFA08B1E6
:100A0000FFF77FFD1148016841F4807101600068C3
:100A100000F4807035900D480C38016841F00101F8
:100A20000160006830AB022100F0010035904FF406
:100A3000C050092283E81300054830A9CDE93342AC
:100A400000F008F836B010BD00A00040EC44025899
:100A5000000002582DE9F84F03247F4D00234FF08A
:100A600001094FF0B04B4FF00F0AEDE009FA03F621
:100A700032407AD00F7907F00307012F01D0022FFF
:100A800019D187684FEA430ED1F80CC004FA0EF86A
:100A900027EA08070CFA0EFC4CEA070CC0F808C05D
:100AA000D0F804C00F792CEA060CC7F300179F405A
:100AB00047EA0C0747600E79F643B60702D18E6805
:100AC000012E0BD0C6684FEA43088F6804FA08FC71
:100AD00026EA0C0607FA08F73743C7600E7906F0D6
:100AE0000306022E12D1DE080F694FEA437C00EBA9
:100AF0008606B646366A4FEADC6C0AFA0CF807FA44
:100B00000CF726EA08063743CEF820700F790668FE
:100B10004FEA430807F0030704FA08FC07FA08F74E
:100B200026EA0C06374307604E6816F4403F1CD097
:100B30004A4E376847F00207376036689F0706F06D
:100B40000206009623F0030606F1B046B6463F0FB4
:100B5000D6F80864DFF808810AFA07FC404526EA5F
:100B60000C0603D14FF0000C41E06CE0DFF8F4C05C
:100B7000604502D14FF0010C39E0DFF8ECC0604570
:100B800002D14FF0020C32E0DFF8E0C0604502D144
:100B90004FF0030C2BE0DFF8D8C0604502D14FF0D6
:100BA000040C24E0DFF8CCC0604502D14FF0050C06
:100BB0001DE0DFF8C4C0604502D14FF0060C16E01E
:100BC000DFF8B8C0604502D14FF0070C0FE0DFF846
:100BD000B0C0604502D14FF0080C08E0DFF8A4C0B7
:100BE000604502D14FF0090C01E04FF00A0C0CFAFD
:100BF00007FC4CEA060CCEF808C44F68DBF800602E
:100C0000FF0226EA020600D516435F46CBF80060D5
:100C1000D1F804C0DBF804605FEA8C2C26EA0206F7
:100C200000D516437E606E684F6826EA0206BF0351
:100C300000D516436E602E684F6826EA0206FF0351
:100C400000D516432E605B1C0A6832FA03F67FF467
:100C50000DAFBDE8F88F000080000058F444025842
:100C6000000002580004025800080258000C025804
:100C7000001002580014025800180258001C0258B4
:100C80000020025800240258426921EA02030A4067
:100C900043EA0241816170470AB1816170470904EA
:100CA000FBE7000001480068000C70470010005C82
:100CB00001488068704700000400002402488168F1
:100CC000027811448160704704000024032010B5AD
:100CD00000F0C8F800F0FEFF0F4A104914681368CE
:100CE000C4F3032203F00F038A5CC95C02F01F0205
:100CF00001F01F01D0400A4A20FA01F111600949B0
:100D000008600F2000F010F808B1012010BD00F0BD
:100D10007BF8002010BD000018440258902A0008FB
:100D2000140000241000002470B50D4D04462878EE
:100D3000A0B14FF47A71B1FBF0F00A490968B1FB38
:100D4000F0F001F024FB48B9102C07D20022214614
:100D5000501E00F067F800206C6070BD012070BD6F
:100D60000400002410000024154BF0B5083B427825
:100D700013491A600B680A1F23F001030B604368D4
:100D80001360057BC67A827A437B2D07847B45EA14
:100D90000665C77B90F809C0067A90F800E045EA3E
:100DA000C24040EA834040EA444040EA074040EA0B
:100DB0000C2040EA460040EA0E000860F0BD00004A
:100DC000A0ED00E0BFF35F8F044800210368034AF1
:100DD00023F48033036070321160704724ED00E02B
:100DE000074A40F00100064970321060086840F47C
:100DF00080300860BFF34F8FBFF36F8F70470000E4
:100E000024ED00E070470000054808B5016841F096
:100E100002010160006800F00200009008BD0000BF
:100E2000F44402580E4BF0B41B680D46C3F3022382
:100E3000C3F10706042E00D90426191D072901D283
:100E4000002300E0DB1E012404FA06F19C40491E49
:100E50002940641E994014402143F0BC01F015BDA7
:100E60000CED00E0064900F0070210B54FF6FF0454
:100E70000868044B204040EA02201843086010BD77
:100E80000CED00E00000FA05134970B50A68D24382
:100E9000520705D5096801F00701814213D118E016
:100EA0000A6822F0070202430A60FFF701FF0A4DB9
:100EB0004FF47A760446083D07E000BFFFF7F8FEDE
:100EC000001BB04201D9012070BD2868C0438004D6
:100ED000F4D4002070BD00000C4802582DE9FE4FEC
:100EE0000546DFF8E48350F8081B0024F64FC94399
:100EF000019005F12800264608F124080090080119
:100F00001DD4A86E50B1B0F5801F0CD0B0F5001FF5
:100F10000ED0B0F5401F1ED001240FE0386840F419
:100F20000030386017E00198022101F0B9FA03E0BF
:100F30000098022101F044FB04000CD026462888CA
:100F4000C043C00523D4A86D05281ED2DFE800F0F9
:100F50000C11161B1B00AA6ED8F8001021F44011CA
:100F60001143C8F80010EAE7386840F400303860F0
:100F700009E00198002101F093FA03E000980021B4
:100F800001F01EFB044674B100E0012426462888C7
:100F9000C043800528D4E86D80281ED00CDC90B1B9
:100FA00040280ED114E0AA6DD8F8001021F00701F6
:100FB0001143C8F80010EAE7C02813D0B0F5807FCD
:100FC00010D001240FE0386840F40030386009E0A8
:100FD0000198002101F064FA03E00098002101F07B
:100FE000EFFA04469CB126462888DFF8DC92C0431D
:100FF00009F12C0940052CD4D5F8A800B0F5800FD4
:1010000020D00DDCA0B1B0F5001F0FD115E0EA6DC6
:10101000D8F8001021F4E0711143C8F80010E3E79C
:10102000B0F5C00F13D0B0F5000F10D001240FE0C1
:10103000386840F40030386009E00198002101F080
:101040002FFA03E00098002101F0BAFA04467CB1BF
:1010500026462888C04300052DD4D5F8AC00B0F151
:10106000007F21D00EDCA8B1B0F1807F10D116E056
:10107000D5F8A820D9F8001021F460011143C9F86F
:101080000010E6E7B0F1407F13D0B0F1806F10D0D0
:1010900001240FE0386840F40030386009E001981E
:1010A000002101F0FDF903E00098002101F088FA29
:1010B000044674B126462868C04380011FD4E86CFA
:1010C000D8B110280FD0202812D0302815D00124F4
:1010D00014E0D5F8AC20D9F8001021F0E0611143FC
:1010E000C9F80010E7E7386840F40030386004E0E1
:1010F0000198022101F0D4F9044674B126462888EB
:10110000C043C0042BD4286EB0F5005F20D00DDCA6
:10111000A0B1B0F5805F0FD115E06B48EA6C2030CC
:10112000016821F0300111430160E8E7B0F5405F4C
:1011300013D0B0F5804F10D001240FE0386840F490
:101140000030386009E00198002101F0A9F903E0BE
:101150000098002101F034FA04468CB12646288814
:10116000C043800429D4686EB0F5403F23D010DC22
:1011700008B3B0F5803F14D0B0F5003F0FD115E0B3
:101180002A6ED8F8001021F4E0411143C8F800108D
:10119000E5E7B0F5802F0ED0B0F5A02F0BD00124DD
:1011A0000AE00198012101F07BF903E00098012198
:1011B00001F006FA044694B126462888C04340044C
:1011C0002AD4D5F8B000B0F1405F23D010DC08B3CA
:1011D000B0F1805F14D0B0F1005F0FD115E06A6EFE
:1011E000D8F8001021F4E0211143C8F80010E4E71A
:1011F000B0F1804F0ED0B0F1A04F0BD001240AE027
:101200000198012101F04CF903E00098012101F05F
:10121000D7F9044674B126462888C04300041FD479
:10122000286FD8B1B0F1805F0ED0B0F1005F10D060
:10123000012414E0D5F8B020D9F8001021F0E041E5
:101240001143C9F80010E7E7386840F4003038600F
:1012500004E00198012101F023F9044674B1264607
:101260002868C043C0011ED4A86CD0B101280ED09C
:10127000022811D0032814D0012413E02A6FD8F8D3
:10128000001021F040511143C8F80010E8E7386819
:1012900040F40030386004E00198022101F000F9C8
:1012A0000446ACB126462868DFF81CB0C043ABF159
:1012B0001C0B400252D40548016841F48071016062
:1012C000FFF7F6FC824611E02C4402580048025811
:1012D000FA48AA6C016821F0030111430160E2E7BA
:1012E000FFF7E6FCA0EB0A00642835D8F448006854
:1012F000C005F5D58CBBDFF8C4A3B5F8B4100AF16E
:10130000240ADAF8000001F4407100F440708842C9
:1013100011D0DAF80010DAF8002021F4407142F41C
:101320008032CAF80020DAF8002022F48032CAF8AD
:101330000020CAF80010D5F8B400B0F5807F1AD1AB
:10134000FFF7B6FC029012E0FFF7B2FC0299411AD7
:1013500041F2883081420AD9032426462878DFF8F2
:101360005CA3C0430AF1080AC00721D03CE0DAF8C8
:1013700000008007E8D5D5F8B410C1F30120032898
:1013800058460DD0016821F47C510160B5F8B420B5
:10139000DAF80010C2F30B021143CAF80010DDE7BF
:1013A000C84A036802EA111223F47C511143ECE7A6
:1013B000E86F182816D005DCA0B1082808D010283E
:1013C00004D10AE020280DD028280BD001240AE0FF
:1013D0000198012101F064F803E00098012101F077
:1013E000EFF8044664B126462878C04380071ED42F
:1013F000A86F062819D2DFE800F0160C1116161691
:10140000EA6FDAF8001021F038011143CAF8001031
:10141000EAE70198012101F043F803E00098012177
:1014200001F0CEF804467CB100E00124264628787D
:10143000C04340071FD4D5F89400062819D2DFE82E
:1014400000F0160C11161616AA6FDAF8001021F02B
:1014500007011143CAF80010E9E70198012101F0E2
:101460001FF803E00098012101F0AAF80446A4B196
:1014700000E0012426462878C04380062BD4D5F806
:101480009000B0F1405F24D011DC10B3B0F1805F68
:1014900015D0B0F1005F10D116E0D5F89420D9F83E
:1014A000001021F007011143C9F80010E3E7B0F183
:1014B000804F0ED0B0F1A04F0BD001240AE001986C
:1014C000002100F0EDFF03E00098022101F078F820
:1014D000044694B126462878C04340062BD4D5F85C
:1014E0009C00B0F5406F24D011DC10B3B0F5806FD4
:1014F00015D0B0F5006F10D116E0D5F89020DAF8CD
:10150000001021F0E0411143CAF80010E3E7B0F504
:10151000805F0ED0B0F5A05F0BD001240AE00198E7
:10152000002100F0BDFF03E00098022101F048F81F
:10153000044694B126462878C04300062BD4D5F83B
:10154000A000B0F5C04F24D011DC10B3B0F5005F9F
:1015500015D0B0F5804F10D116E0D5F89C20D9F801
:10156000001021F4E0511143C9F80010E3E7B0F591
:10157000004F0ED0B0F5204F0BD001240AE00198A7
:10158000002100F08DFF03E00098022101F018F81F
:10159000044654B126462878C04300071ED4D5F827
:1015A0008400B0F5805F0AD00FE0D5F8A020D9F80C
:1015B000001021F460411143C9F80010EBE70098D6
:1015C000022100F0FDFF00B10126D5F88420DAF8F1
:1015D000001021F440511143CAF800102878C0438C
:1015E000C00613D4D5F89800B0F5807F05D10098D7
:1015F000022100F0E5FF00B10126D5F89820D9F8C6
:10160000001021F440711143C9F800102868C0434C
:10161000000316D4D5F8A40038B1B0F5803F09D046
:10162000B0F5003F0BD001240AE00198002100F042
:1016300037FF03E00098022100F0C2FF04468CB19E
:1016400026462868C043400322D4D5F88800B0F568
:10165000801F11D0B0F5001F13D0B0F5401F15D07A
:10166000012414E0D5F8A420D9F8001021F4403169
:101670001143C9F80010E4E7386840F400303860DE
:1016800004E00098012100F09BFF04465CB126466F
:101690002868C043C00323D4286DA8B1B0F5803FAB
:1016A00017D001241BE0D5F88820DAF8001021F4C7
:1016B00040111143CAF80010EAE700004C440258F8
:1016C00000480258CFFFFF00386840F4003038600F
:1016D00004E00198022100F0E3FE0446E4B126464E
:1016E0002868C043800005D40098022100F068FFFC
:1016F00000B101262868C04380031BD4D5F88000C0
:10170000B0B1B0F5807F0FD0B0F5007F10D0B0F54C
:10171000407F0DD001240CE05A482A6D016821F465
:10172000803111430160DBE7386840F400303860F5
:10173000ECB326462868C043C00207D46A6FD8F8C5
:10174000001021F000411143C8F800102868C04380
:10175000C00008D4D5F8B820DBF8001021F480418F
:101760001143CBF800102868C043800207D4EA6E0A
:10177000D8F8001021F080711143C8F800102868D3
:10178000C04340000CD4DBF8001021F40041CBF83A
:101790000010DBF80010D5F8BC201143CBF8001086
:1017A0002868C04308D437486A6D016800E018E033
:1017B00021F04051114301602868C043000208D461
:1017C000D5F88C20DAF8001021F440011143CAF852
:1017D000001028790024C04300F0010020430AD003
:1017E0000FE0D5F88020DAF8001021F440711143A1
:1017F000CAF800109EE70198002100F051FE00B1E8
:1018000006462879C04300F00200204305D1019824
:10181000012100F045FE00B106462879C04300F0E2
:101820000400204305D10198022100F039FE00B1E7
:1018300006462879C04300F00800204305D10098EF
:10184000002100F0BDFE00B106462879C04300F03B
:101850001000204305D10098012100F0B1FE00B135
:1018600006462879C04300F02000044304D10098C4
:10187000022100F0A5FE00B916B10120BDE8FE8FDF
:101880000020FBE74C4402582DE9F05F04000F46AE
:101890007ED0DFF83882D8F8000000F00F00B842A0
:1018A0000CD2D8F8001021F00F013943C8F800100D
:1018B000D8F8000000F00F00B84269D12078844DBC
:1018C00040070AD52069296801F07001884204D9CF
:1018D000296821F070010143296020787C4E361D73
:1018E00000070AD56069316801F07001884204D9A7
:1018F000316821F07001014331602078C0060AD5BB
:10190000A069316801F4E061884204D9316821F4AA
:10191000E061014331602078DFF8B4B180060BF15B
:10192000080B0CD5E1695846DBF8002002F0700284
:10193000914204D9026822F070020A4302602078C2
:1019400080070AD5E068296801F00F01884204D9B0
:10195000296821F00F01014329602078C0073ED09B
:101960005B49A2682868183920F470601043286029
:101970006068022818D0032819D00968012819D0F6
:10198000490700294ADADFF848A1AAF1080A00E06D
:1019900044E0DAF8002022F007020243CAF80020EF
:1019A000FFF786F9814612E009688903E9E70968CB
:1019B0008901E6E7C905E4E7FFF77AF9A0EB090139
:1019C00041F28830814202D90320BDE8F09F61686E
:1019D000DAF8000000F03800B0EBC10FECD120784D
:1019E00080070AD5E068296801F00F01884204D217
:1019F000296821F00F0101432960D8F80010404602
:101A000001F00F01B9420BD9016821F00F013943F0
:101A10000160006800F00F00B84201D00120D4E757
:101A2000207840070AD52069296801F070018842B2
:101A300004D2296821F07001014329602078000751
:101A40000AD56069316801F07001884204D23168BA
:101A500021F07001014331602078C0060AD5A069E9
:101A6000316801F4E061884204D2316821F4E06118
:101A700001433160207880060CD5E1695846DBF8D7
:101A8000002002F07002914204D2026822F070023B
:101A90000A43026000F01EF90E492A682B68C2F35F
:101AA000032203F00F038A5CC95C02F01F0201F0FD
:101AB0001F01D040084A20FA01F11160074908606F
:101AC00007480068BDE8F05FFFF72EB9002000521C
:101AD00018440258902A0008140000241000002422
:101AE000080000242DE9F047704C206800F00F003A
:101AF000072809D2206820F00F00C01D2060206850
:101B000000F00F0007287CD1FFF7D2F8DFF8A081A2
:101B10000546D8F8000040F00100C8F8000004E0D5
:101B2000FFF7C6F8401B022875D8D8F80000400718
:101B3000F6D55F4800275E4E001D103603685D49EC
:101B400043F08043036037605B4801605B4801609D
:101B50005B480068FFF7E8F8002852D1FFF7A8F8C3
:101B6000054641F2883904E0FFF7A2F8411B4945D8
:101B700051D8306810F0380FF6D1FFF799F8514975
:101B80000546D8F800000840C8F8000005E000BF8E
:101B9000FFF78EF8401B64283DD8D8F8000080037A
:101BA000F6D4FFF785F80546D8F8000020F08070DD
:101BB000C8F8000005E000BFFFF77AF8401B0228D4
:101BC00029D8D8F800008001F6D4FFF771F805464F
:101BD000D8F8000020F08060C8F8000005E000BFE1
:101BE000FFF766F8401B022815D8D8F8000000015E
:101BF000F6D4FFF75DF80546D8F8000020F08050D5
:101C000001E04EE007E0C8F8000007E0FFF750F8F9
:101C1000401B022802D90320BDE8F087D8F8000055
:101C20008000F3D4224D384627491835274B2E1D06
:101C3000321D2F601E4F264D283730603E1D10602C
:101C4000321D3B60131D35601D1D11602A1D161DC0
:101C50001860331D2960106031601860D8F80030BA
:101C60004FF0FF351249124A23F48023104ED03131
:101C70006032C8F80030683610603560086840F49B
:101C800080300860206800F00F0007280BD920681A
:101C900020F00F00C01D2060206800F00F00072812
:101CA00001D00120B8E70020B6E700000020005274
:101CB000004402580090D0031000002414000024B7
:101CC0000800002445EDF6FF800201010002020237
:101CD0000000FF01454970B545480968434B103B7A
:101CE00011F0380208D00111082A03D0102A0BD0B5
:101CF000182A0BD0084670BD19688906FBD51968EB
:101D0000C1F3C101C84070BD3A4870BD3749374D75
:101D100018310C1D24350A68096826682D6802F000
:101D2000030406F00102C1F30511C5F3CC0515FB50
:101D300002F200EE102AB8EE400AE9B32F4ADFEDB6
:101D40002E0AB7EE001A6CB1DFED2D1A012C01D06E
:101D5000022C43D002EE101A1068F8EE422A81EEEF
:101D6000A22A1EE01C68A40611D51B6801EE901A79
:101D70001168C3F3C103F8EE612AD84001EE900A5E
:101D8000C1F30800F8EE611A81EEA22A0BE001EE21
:101D9000901ADFED1C2A00BFF8EE611A106882EE7F
:101DA000A12AC0F3080001EE900AF8EE611A40EE95
:101DB000201A31EE810A00E015E022EE000A1068D8
:101DC000C0F34620401C00EE900AF8EE600A80EE58
:101DD000201ABCEEC10A10EE100A70BD01EE901A76
:101DE000DFED092AD8E7002070BD0000104402583A
:101DF0000090D00340787D01000000393044025843
:101E00000024744A0024744C20BCBE4B2DE9F05FC2
:101E100004007DD0FF4F2078FE4D1837DFF8F49393
:101E2000103DC00748D0D9F80000396800F03800EC
:101E3000102815D0182803D101F0030002280FD074
:101E40006068B0F5803F12D010B1B0F5A02F18D067
:101E5000286820F480302860286820F4802009E079
:101E60002868800328D560680028D2D024E028683C
:101E700040F480302860606888B1FEF719FF06469C
:101E800009E0286840F480202860F0E7FEF710FFA2
:101E9000801B64286FD828688003F7D50CE0FEF714
:101EA00007FF064605E000BFFEF702FF801B64281F
:101EB000F0D828688003F7D4207841F20308D54E83
:101EC0000C3E800769D5D9F80000396810F0380059
:101ED0000ED0182801D188070AD0E06890B329688D
:101EE00021F0190101432960FEF7E2FE824631E04C
:101EF0002868400702D5E06800288AD0E168286891
:101F000020F0190008432860FEF7D2FE824607E061
:101F1000DFE000BFFEF7CCFEA0EB0A000228B9D834
:101F200028684007F6D500BFFEF7BCFE40451BD829
:101F30002069402812D0316821F47C3141EA003018
:101F400030602AE018E000BFFEF7B2FEA0EB0A0006
:101F500002289FD828684007F6D5E5E7306820F4C6
:101F60007C3040F40030EBE7207C316821F0FE410A
:101F700041EA0060E4E70DE1286820F001002860F4
:101F8000FEF796FE824605E0FEF792FEA0EB0A0001
:101F900002288DD828684007F6D42078C0065DD581
:101FA000D9F80000DFF86CB2396800F03800ABF106
:101FB000040B082810D0182803D101F003000128D1
:101FC0000AD0E0690028286838D040F080002860F6
:101FD000FEF76EFE824623E02868C00523D5E0693F
:101FE000802876D11FE0206A202821D0316821F096
:101FF000F84141EA8060306030E000BF94F8201082
:10200000DBF8002022F07C5242EA0161CBF800109C
:1020100024E000BFFEF74CFEA0EB0A00022898D88F
:102020002868C005F6D5FEF73DFE4045E6D8DAE75C
:10203000306820F0F84040F08040DCE720F080007D
:102040002860FEF735FE064605E000BFFEF730FECD
:10205000801B02289DD82868C005F7D42078000787
:1020600029D56C486169643000298046016811D027
:1020700041F001010160FEF71BFE064605E000BFCE
:10208000FEF716FE801B0228C9D8D8F8000080078A
:10209000F6D510E021F001010160FEF709FE0646C9
:1020A00005E000BFFEF704FE801B022872D8D8F8B6
:1020B00000008007F6D42078800623D5A069002888
:1020C000286810D040F480502860FEF7F1FD0646E5
:1020D00005E036E1FEF7ECFD801B02285AD828689F
:1020E0008004F7D50EE020F480502860FEF7E0FD74
:1020F000064604E0FEF7DCFD801B02284AD828686B
:102100008004F7D4207840074FD5DFF80C81D8F849
:10211000001041F48071C8F80010FEF7C9FD0646B2
:1021200005E000BFFEF7C4FD801B642832D8D8F854
:102130000000C005F6D5374EA068603601280AD0E9
:1021400008B1052813D0306820F0010030603068F5
:1021500020F0040002E0306840F001003060A06828
:1021600041F2883A90B1FEF7A3FD80460AE030685C
:1021700040F004003060EEE7FEF79AFDA0EB0801A6
:10218000514507D830688007F6D50EE0FEF790FD80
:10219000804607E084E000BFFEF78AFDA0EB08015F
:1021A00051457DD830688007F6D4606AB0B3DFF857
:1021B0006480D9F8001008F120084FF6F87B08F188
:1021C0000409C1F3C2010329A8F1040A69D0022855
:1021D000286820F08070286003D0FEF769FD04466F
:1021E00084E0FEF765FD064605E000BFFEF760FDF2
:1021F000801B022877D828688001F7D4E26A40F271
:10220000F331386854F8283F884340EA02101843F5
:10221000386004E01044025800480258B5E0217BC1
:10222000434622894FF4FE0C208A4FF0FE474902B4
:10223000267D521E401EA1F50071C2F308088AB225
:10224000761E0CEA004042EA08020243504607EAC2
:1022500006610A431A60DAF8002022F00102CAF887
:102260000020D9F80020266A22EA0B0242EAC602C0
:10227000C9F80020DAF80010A26921F00C0111431E
:10228000CAF800100168E26921F0020111430160FF
:10229000016841F480310160016841F4003101E0DE
:1022A00021E027E00160016841F4802101600168BC
:1022B00041F001010160286840F080702860FEF75D
:1022C000F7FC044605E000BFFEF7F2FC001B022805
:1022D00009D828688001F7D557E000BFFEF7E8FC71
:1022E000001B022802D90320BDE8F09F2868800166
:1022F000F4D44AE039680128D8F8000021D0A26A55
:1023000001F0030393421CD1E26AC1F305118A4232
:1023100017D1216BC0F30802491E8A4211D1616BAB
:10232000C0F34622491E91420BD1A16BC0F3064275
:10233000491E914205D1E16BC0F30660491E8142FE
:1023400001D00120D0E7A16C4E46D9F80000C0F3BF
:10235000CC00814219D0DAF80000554620F0010087
:10236000CAF80000FEF7A4FC4FEA0007FEF7A0FC45
:10237000B842FBD0A26C306820EA0B0040EAC200F1
:102380003060286840F0010028600020ACE7401E63
:10239000B0F1807F10B501D3012010BD4FF0E024D3
:1023A00060610F21601700F070FA0020A061072122
:1023B000216110BDFEE700001748002170B5154DE2
:1023C00001220560022481600A25C1600423027491
:1023D000417481744561C0E90624C0E90842826203
:1023E000C262C0E90C218163C163C0E91013C0E976
:1023F0001213C0E914138165C1650166C0E91913A0
:10240000FEF7C2F9002803D0BDE87040FEF779B8A6
:1024100070BD000000A000405000002410B586B040
:1024200014216846FDF7E6FF1948016841F00401F0
:102430000160016801F004010591016841F080012B
:102440000160016801F080010591016841F002011D
:102450000160016801F002010591016841F001018C
:102460000160006800220B4C012100F00100059082
:102470002046FEF711FC0021204601220092CDE902
:10248000012103916946FEF7E5FA06B010BD000090
:10249000E044025800040258FEE7FEE770470000DF
:1024A0002DE9F047454D044689464FF0000A28685B
:1024B000C04380070AD0414E283E306820F080603B
:1024C0003060FEF7F5FB0746B04608E00120BDE8A6
:1024D000F08700BFFEF7ECFBC01B022867D8D8F8D6
:1024E00000000001F6D4206829684FF4FE0721F4AB
:1024F0007C313E0241EA00302860207AA389B4F89A
:1025000004C040022D4D2D495B1E227CACF1010C14
:102510001035091DA0F5007080B2521ECCF3080CD6
:1025200007EA034340EA0C00184306EA026210433C
:1025300028600868626920F0C000104308600A68DB
:10254000A06922F0200202430A60281D0A6822F0D6
:1025500010020A6002684FF6F873E4699A4342EA8F
:10256000C40202600868B9F1000F40F010020A606E
:1025700011D00868B9F1010F11D040F400100860C3
:10258000D8F80000444640F08060C8F80000FEF72C
:102590008FFB05460DE0086840F40020EFE740F4AB
:1025A0008010ECE7FEF784FB401B022801D90320D2
:1025B0008DE720680001F5D5504688E72844025889
:1025C0002DE9F047454D044689464FF0000A28683A
:1025D000C04380070AD0414E283E306820F080502A
:1025E0003060FEF765FB0746B04608E00120BDE815
:1025F000F08700BFFEF75CFBC01B022867D8D8F845
:1026000000008000F6D4208829684FF4FE0721F0EE
:102610007C713E0241EA00502860207AA389B4F818
:1026200004C040022D4D2D495B1E227CACF1010CF3
:102630001835091DA0F5007080B2521ECCF3080CAD
:1026400007EA034340EA0C00184306EA026210431B
:1026500028600868626920F44060104308600A68D6
:10266000A06922F4007202430A60281D0A6822F45D
:1026700080720A6002684FF6F873E4699A4342EA8E
:10268000C40202600868B9F1000F40F480720A6069
:1026900011D00868B9F1010F11D040F080700860C6
:1026A000D8F80000444640F08050C8F80000FEF71B
:1026B000FFFA05460DE0086840F48000EFE740F4BB
:1026C0000000ECE7FEF7F4FA401B022801D90320D2
:1026D0008DE720688000F5D5504688E728440258E9
:1026E0007047FEF7EBBA000070B59CB04C2168460D
:1026F000FDF780FE202113A8FDF77CFE0220FEF7E7
:10270000C3FB2149002421480A6822F001020A6023
:102710000968016841F440410160016801F44041E9
:102720001B9101688904FCD50DF1280C0220099049
:102730000523A0268CE84900C2030F9008250D90C0
:1027400001210E90CDE91054CDE900126846129493
:10275000FFF75CFB08B172B6FEE740201A903F21FC
:102760000301CDE916500322CDE9180313AB13A8DA
:1027700083E816000221FFF787F8002801D072B61F
:10278000FEE71CB070BD00002C0400581848025829
:102790003348F0B5334A016841F4700101601068B4
:1027A00000F00F00072804D2106820F00F00C01DB1
:1027B00010602D4900202C4C10340B682B4D43F039
:1027C00001030B6020600B682B400B60136803F063
:1027D0000F03072B04D9136823F00F03DB1D1360CD
:1027E000214C234A1834234B261D371D20601E4CD4
:1027F000214D28343060261D3860371D23603B1D75
:1028000035601C1D3A60251D2E1D1860331D226089
:102810002860326018600A68134B184C22F480223A
:1028200060330A60186020686FF30F00B0F1005F3A
:1028300003D213490120C1F808010B48D4300168C4
:10284000C9040BD4026843F2D2010E4B42F4805209
:1028500002601960016821F480510160F0BD000040
:1028600088ED00E000200052004402587FEDF6EAB7
:1028700080020101000202020000FF010010005C62
:102880000080005100400052FEE7090700284FEA8F
:10289000116104DB00F1E02080F80014704700F0C3
:1028A0000F0000F1E02080F8141D7047014900205E
:1028B00008607047F0FF01200649084A06480B6887
:1028C000934206D14968012903D0022901D14FF072
:1028D0000160704700001E08000002083141544F9B
:1028E000044805490068884201D101207047002052
:1028F00070470000F0FF01205A5AA5A570B50646A2
:102900001348356874682840B0F1005F01D0012099
:1029100070BD10484FF460212044884205D3A4F1D3
:102920000160884201D3022070BDFFF7DBF8FDF79C
:10293000DDFE72B600214FF0E020074A01614161DF
:102940008161166085F3088862B6A047002070BDDB
:102950000000FE2F0000FEF708ED00E01FB5002488
:102960000094019402940394FEF72CFA01208DF850
:102970000C001F218DF8081087228DF809208DF892
:102980000D008DF8000068468DF80A408DF80E4065
:102990008DF8014001948DF80B408DF80F40FEF743
:1029A000E3F90420FEF71CFAFEF790F9FFF79CFE0E
:1029B000FFF734FDFFF700FD114D4FF4FA760121CA
:1029C0002846FEF761F93046FDF7CCFE641C0A2C60
:1029D000F5DBFFF785FF20B1FFF768FF00F014F883
:1029E00005E0FFF769FFFFF789FF0649087001213D
:1029F0002846FEF749F9C820FDF7B4FEF7E70000C6
:102A0000000402580000002406480021FF22016053
:102A100041608160C160016380F834102021103072
:102A2000FDF7E0BC180000244FF04070E1EE100A02
:102A3000704700000001020304050607080C10148B
:102A400018203040000000000000000000000000DE
:102A50000000000000000000010000000200000073
:102A6000030000000400000000000000050000005A
:102A70000000000000000000000000000600000050
:102A8000000000000000000000000000070000003F
:102A90000000000001020304010203040607080904
:102AA000C02A00080000002418000000D40200081A
:102AB000D82A00081800002438070000F002000897
:102AC00000000000010000001000000000000000F5
:082AD0000090D0030090D00338
:040000050800029954
:00000001FF
